:100000006F103013130000001300000013000000F5
:100010001300000013000000130000001300000094
:100020001300000013000000130000001300000084
:08003000130000007300100032
:100038000000000000000000A0050000A40500006A
:100048000000000078180000000000000000000018
:100058007A1800007C180000000000000000000072
:100068007E1800000000000080180000000000005A
:100078008218000084180000861800008818000004
:100088008A1800008C1800008E18000090180000D4
:1000980092180000941800009618000098180000A4
:1000A8009A1800009C1800007E0400000E0500004D
:1000B800A2180000A4180000A6180000A818000044
:1000C800AA180000AC180000AE180000B018000014
:1000D800B2180000B4180000B6180000B8180000E4
:1000E800BA180000BC180000BE180000C0180000B4
:1000F800C2180000C4180000C6180000C818000084
:10010800CA180000CC180000CE180000D018000053
:10011800D2180000D4180000D6180000D818000023
:10012800DA180000DC180000DE180000E0180000F3
:10013800E2180000E4180000E6180000E8180000C3
:10014800EA180000EC180000EE180000F018000093
:10015800F2180000F4180000F6180000F818000063
:10016800FA180000FC180000FE1800000019000032
:1001780002190000041900000619000008190000FF
:100188000A1900000C1900000E19000010190000CF
:10019800121900001419000016190000181900009F
:1001A8001A1900001C1900001E190000201900006F
:1001B800221900002419000026190000281900003F
:1001C8002A1900002C1900002E190000301900000F
:1001D8000000000000000000000000000000000017
:1001E8000000000000000000000000000000000007
:0801F8000000000000000000FF
:100200003D432A876373C3029377F700BDEFADE5E3
:10021000937606FF3D8ABA960CC34CC30CC74CC7F5
:100220004107E36BD7FE11E28280B306C3408A0622
:100230009702000096966780A6002307B700A306E2
:10024000B7002306B700A305B7002305B700A30432
:10025000B7002304B700A303B7002303B700A3022A
:10026000B7002302B700A301B7002301B700A30022
:10027000B7002300B700828093F5F50F93968500B1
:10028000D58D93960501D58D61B79396270097027A
:10029000000096968682E78086FA9680C1171D8FA9
:1002A0003E96E374C3F8A5B779718545116506D606
:1002B00022D426D24AD0EF10B07085456145EF10A8
:1002C000506E371901400D448D67E1444C00130511
:1002D00009C02312F10026C622C4EF10302CE177AA
:1002E0002312F1004C009147130509C03EC622C4F9
:1002F000EF10D02A930700044C0037150140231259
:10030000F10026C622C4EF107029930700303EC8C2
:10031000B70700023ECA896737440040938707F455
:100320003ECC0C08A14713050480231EF100EF10FA
:10033000106B1305048005468545EF10B079130551
:1003400004808145EF103077B25022549254025904
:10035000456182805D71A2C4A6C22A84AE8405452F
:10036000854586C632C636C4EF10D0612285EF10AF
:10037000A066930700083246A2463ED493070010B9
:100380003ED6930700403ED84C088967228526CA8E
:1003900032CC36D03EDC02CE02D202DA02DEEF10E0
:1003A000607A228505468945EF10807EB640264456
:1003B0009644616182805D71A2C4A6C22A84AE8423
:1003C0000545854586C632C636C4EF10B05B22852A
:1003D000EF108060930700043ED2930700083ED4DC
:1003E00093070020A24632463ED6930700403ED8EF
:1003F0008D673EDC4C089167228536D03EDE26CAEA
:1004000032CC02CE02DAEF10E07322850546894530
:10041000EF10007822858545EF104076B6402644DF
:10042000964461618280371501404111054693056C
:1004300000101305058006C6EF109023352E594590
:1004400039218D450145ED2E054581451529A93DEB
:10045000B7E700E00157238FE740B706004023A02D
:10046000D710A38FE740B2403707008023A0E710E2
:10047000377500001305C5A041016F40B06E5D7176
:10048000096582E686E48AE28EE012FE16FC1AFA1C
:100490001EF82AF62EF432F236F03AEE3EEC42EA3C
:1004A00046E872E676E47AE27EE0EF1060750DC908
:1004B0001D65EF1000753745004081451305058027
:1004C000EF10705FB7050020916637050240138674
:1004D000850E938606E89385850E13058505E13D17
:1004E0003660A660166186617272E2725273C273E0
:1004F0003275A275127682767267E2675268C268B8
:10050000326EA26E126F826F6161730020305D7176
:100510003705020082E686E48AE28EE012FE16FCCF
:100520001AFA1EF82AF62EF432F236F03AEE3EECC3
:1005300042EA46E872E676E47AE27EE0EF10406C4A
:100540000DC9B707002021679387870E130707D0CF
:100550003E97617683D607008907B296239FD7FE20
:10056000E39AE7FE0547370507002386E182EF108F
:1005700040693660A660166186617272E2725273DB
:10058000C2733275A275127682767267E26752681C
:10059000C268326EA26E126F826F6161730020308A
:1005A0007300203001A0397152D456D22E8AAA8A03
:1005B0008545214506DE22DC26DA4AD84ED602C21F
:1005C00002C402C602C802CA02CC02CEEF10703DBD
:1005D000854537054000EF10B03EB71401401304C5
:1005E0000040F1490D494C00138504C023128100DD
:1005F0004EC64AC4EF10807A8567938707804C0007
:10060000138504C02312F1004EC64AC4EF100079CE
:10061000B7070040231D8100376400403ECA0C0824
:10062000916713050480231EF10056C8231C410165
:10063000EF10B004130504808545EF10B0151305C5
:1006400004808545EF10901AF2506254D2544259FA
:10065000B259225A925A2161828001118545114571
:1006600006CEEF101034930700102312F100371557
:100670000140C1473EC64C008D47130505803EC46E
:10068000EF10C071F24005618280011122CC376405
:10069000004026CA4AC84EC606CE52C4AA892E8930
:1006A00093040480B70502002685EF1050197DF9E8
:1006B00013050480854537040300B7640040EF103C
:1006C000300F0504138A0480A2855285EF1090151F
:1006D00065DD13850480014693050002B704070019
:1006E00037640040EF10D012938424081304048070
:1006F000A6852285EF10101365DD37040010B7645E
:10070000004013040408138A0480A2855285EF1068
:10071000101365DD13850480CE85B70407003764A8
:100720000040EF10900E9384440813040480A685C3
:100730002285EF10300F65DDB704001037640040EC
:100740009384040893090480A6854E85EF10300F2A
:1007500065DDCA8513050480EF10300B1305048096
:100760008545EF10D006F2406244D2444249B24976
:10077000224A014505618280411106C6F93D3715BF
:1007800003008545130505D4393D9305000801454F
:10079000ED3D81450145D53D13054006EF1030483C
:1007A000930580050545D535930500050545F13DC3
:1007B0009305300F0945D13D9305000F0945F135EB
:1007C000A5450D45D93599450145C13581451145A9
:1007D0006D3D81452145553D930500081305B00247
:1007E0006D359305800825454D359305C004314589
:1007F000693DC9453545513D81454145793581457D
:1008000045456135E1455D45493589456145B53D1C
:10081000814569459D3D81456D45853D9305800B2D
:10082000130570029D359305800B1305A002B13DA1
:1008300013054006EF10B03EB240014541018280F1
:100840000D899D8906058E05C98D5D453DBD41110A
:1008500022C426C206C6AA84014463179400B2408B
:100860002244924441018280A2851305E002313D79
:10087000A2851305F0020504093D1374F40FF1BFBE
:10088000939715008E05CD8FC98F0A05C98F93F5F3
:10089000F70F0945DDBB13578500B70702602380BA
:1008A000E7001375F50F2380A7008280B707026069
:1008B00083C70700411193F7F70FA307F100034522
:1008C000F1004101828035711306C0038145C800E3
:1008D00006CF22CD26CB4AC94EC752C556C35AC1F0
:1008E000930AC10002C002C202C4EFF07F917146B8
:1008F00081455685EFF0DF90130A810271468145EC
:100900005285EFF0FF8F854513050010EF1090071B
:10091000854513058016EF10D008B71401400D442B
:100920009167414B8A85138504C02310F1005AC496
:1009300022C2EF10A046F177E149938737738A8589
:10094000138504402310F1004EC422C2EF1000456D
:1009500037250140930700F88A8513050580231089
:10096000F1004EC422C2EF1060438A851385044013
:100970000569231021014EC422C2EF1020428A854E
:100980001385044013090980231021015AC422C28F
:100990000569EF10A0409305098013850440EF100E
:1009A000E04C85473EC6BD473ECAC800916722D885
:1009B000CAD4BED8D6DCD2DE02C802CC02CE02D067
:1009C00002D202D402D602DA02DC02DE82C082C285
:1009D00082C482C682C882CA82CE82CC82D082D2AF
:1009E00082D682DAEF10002E85450145EF102039BE
:1009F000FA406A44DA444A49BA492A4A9A4A0A4BAE
:100A00000D618280011185451305000206CE22CCBE
:100A1000EF1020798967371401402312F100C14794
:100A20003EC64C008D47130504403EC4EF1000370E
:100A3000130504408965EF102043896513050440C0
:100A4000EF10C04213054006EF10701D130504405F
:100A50008965EF106041F240624405618280239015
:100A6000A182B70700202390B70A8280B7070260EF
:100A70001307A002A38FE7FE135785002380E7002A
:100A80001375F50F2380A700135786002380E70016
:100A90001376F60F2380C7001307B002A38FE7FE7B
:100AA00013D785002380E70093F5F50F2380B70067
:100AB00013D786002380E70093F6F60F2380D70034
:100AC0001307C002A38FE7FE8280411122C426C211
:100AD0009306F00E935485001374F50F1306F00E71
:100AE0008145014506C659371307000FB706026056
:100AF0009307000FFD1723809600C207238086000E
:100B0000C183EDFB7D17420741837DF3B240224450
:100B1000924441018280411106C622C426C2DD35BD
:100B20005D33370402609147A30FF4FE4133BD3BB0
:100B3000B53B93140501C180A204C204853BC1806A
:100B4000458D9315050137A50000C181130545A802
:100B5000EF40A06F13052003EF10700C93076003A4
:100B6000A30FF4FE230004001306A003A30FC4FE8A
:100B700095472300F400930720FBA30FF4FEB14632
:100B80002300D4002300D400230004009307300383
:100B90002300F4002300F400130770FBA30FE4FE0E
:100BA000230004001307B0FBA30FE4FE1303F003BC
:100BB00023006400130700FCA30FE4FE1307C00228
:100BC0002300E400130720FCA30FE4FE05472300E5
:100BD000E400130730FCA30FE4FEB5482300140122
:100BE000130740FCA30FE4FE130700022300E400F8
:100BF000130760FCA30FE4FE0D472300E4009305F8
:100C000000FDA30FB4FE930540FA2300B400930542
:100C100010FA2300B4008155A30FB4FE41582300FD
:100C200004012300E400A5452300B4002300E400F0
:100C300041452300E4009305D0022300A4002300D3
:100C4000B400130730042300E400230064002300F1
:100C5000F4002300140139472300E40093049002B8
:100C60002300940093082003230014018558A30F48
:100C700014FF230004012300D4002300A400230058
:100C8000E4002300E40029472300E4002300B4002B
:100C90002300F400930750042300F4002300C40051
:100CA000D1472300F400E5472300F4009307100325
:100CB0002300F400930770032300F400930710024D
:100CC000A30FF4FEC547A30FF4FE13054006EF1073
:100CD00000750145DD3B371501409165130505C0E1
:100CE000EF108018A30F94FEB240224492444101B9
:100CF0008280411122C4AE8632842A8606C6BD3364
:100D000022852244B240410179B6011122CC4AC861
:100D10004EC652C456C206CE26CAAA892E84328A2C
:100D20003689BA8AA13363768902F2406244D2449A
:100D30004249B249224A924A056182808504568519
:100D4000C204913EC180E37B9AFE050442044180C7
:100D5000D9BFCE84CDBF93D816001308000FB308B7
:100D6000184163E0A81A3308D840636CB818797149
:100D700022D406D6130406FE26D24AD04ECE52CC3A
:100D800056CA5AC85EC662C441461374F40F639AC9
:100D9000C6069386F50013067500C2064206C18298
:100DA00041821D6AE13112048149130ACAA1B70BBD
:100DB0000020C14AB3073401D29703C90700A144F8
:100DC00093178901E18763DB070203D50B0AFD1442
:100DD000060993F4F40FC1341379F90FF5F085097E
:100DE000E39A59FDB250225492540259F249624A90
:100DF000D24A424BB24B224C4561828003D50182DC
:100E0000F9B76146639BC606938675011306B50064
:100E1000C2064206C1824182913993070018330409
:100E2000F4021D6A8144130B0003130ACAFF370C36
:100E300000200D8093F7F40FE38664FB33079400E2
:100E40005297858B83490700914A91E3A14A014952
:100E500093978901E18763DF070003550C0A0509B1
:100E600086091379F90F053C93F9F90FE3922AFFEC
:100E70008504C9B703D50182DDB71306000263916B
:100E8000C6069386F5011306F500C2064206C18226
:100E90004182216AE13E1A048149130ACA19B70B3B
:100EA0000020930A0004B3878900D29703C9070082
:100EB000A14493178901E18763D1070203D50B0A87
:100EC000FD14060993F4F40FEFF0FF9C1379F90F6A
:100ED000EDF08509E39959FD31B703D50182CDB70E
:100EE0002254B25092540259F249624AD24A424BB9
:100EF000B24B224C37A50000130505A945616F4090
:100F0000C0348280557126DB4AD94ED7AA84B28973
:100F10002E89130600088145080822DDBAC1BEC328
:100F200006DF52D556D35AD15ECF3684C2C5C6C766
:100F3000EFF00FAD13F779FFC147630DF70093078B
:100F400000026389F90037A50000CE851305C5AD01
:100F5000EF40A02F9401228693054006080836C66C
:100F6000EF40E04613D719009307000F131B07014A
:100F7000C16AB38BE740135B0B010008338A37412A
:100F8000938A0A808347040081EFFA506A54DA5446
:100F90004A59BA592A5A9A5A0A5BFA4B69618280AD
:100FA00063F79B004E994209135909018144637606
:100FB0002A015685193E01498144034604002685CD
:100FC000DA94CE86CA85C2047933C18005045DBF38
:100FD0005D716AD03A8D1307000F86C6A2C4A6C2FF
:100FE000CAC04EDE52DC56DA5AD85ED662D466D219
:100FF0006ECE1D8F6345A704AE846342B704939AF7
:10100000070193DA0A0113F77700368C3337E000D3
:1010100093D63A003697B38AEA0213078004A96B85
:10102000AA972A892A84814D938BCB91A14C3EC6E5
:10103000330BE60293970D01C18363E15703B6407A
:10104000264496440649F259625AD25A425BB25B30
:10105000225C925C025DF24D61618280B307BB014C
:10106000DE9703CA070081493305340193178A01CB
:101070004205E18741816A8663C30700628685096C
:10108000C209A685060A93D90901A531137AFA0F78
:10109000E39C99FD2104B247420441806346F40079
:1010A0008504C204C1804A84850D69B7411122C4F8
:1010B0003744004085451305048006C6EF10A01F85
:1010C0001305A019EF10A0359305C480A16637045D
:1010D000024037060020938606D01306860E1305BD
:1010E0004404EFF02FA7130544048545EF001029B1
:1010F0001305C012EF10A0322244B24037A5000001
:10110000130545D341016F40E025011122CC4AC8A7
:10111000371401202E8985651306C416938505961C
:1011200006CE26CA4EC652C42A8AEF1020419165C7
:101130009306C41613864182938505E852859389E8
:101140004182EF10C04A83A7490085CF1306C41619
:1011500037040120930584AE13854182EF10407C53
:10116000930784AE83D7270095C7130584AE6244E6
:10117000F240D244B249224ACA85424905616F1001
:1011800030280945F2406244D2444249B249224AD9
:10119000056182800D45FDB7797137A5000022D425
:1011A00026D2130545B9B704002037F405084AD004
:1011B0004ECE52CC56CA5AC85EC662C406D666C265
:1011C00093840400EF40001A130404800149B7A976
:1011D000000037AA0000B7AA0000B70B002037AC08
:1011E00000009386C9BA61469305700D130580020D
:1011F000113BA54C8C401305CABBEF4000057D3563
:10120000A28513850ABDEF4040049387C18203C7BE
:1012100007001377F70F75DB03C707001377F70F86
:1012200015C3A28513858B0E23800700F93D8C40E2
:1012300005ED37A500001305C5BD0509EF40E00029
:101240001379F90F1305803EEF10601D1305803EE2
:10125000EF10E01C89673E94B71707089387078053
:101260009104E310F4F839A013058CBFEF30F07D42
:10127000E31299F937A50000130505C1EF40800E70
:1012800001479306F00E1306F00E9305700D13053B
:101290008002EFF09FA7B7A6000013058002938697
:1012A00046C261469305700DB139B2502254925432
:1012B0000259F249624AD24A424BB24B224C924CFA
:1012C000014545618280797106D622D426D24AD062
:1012D0004ECE52CC56CA5AC85EC662C4C13B938732
:1012E000C18203C707001377F70F75DB03C7070039
:1012F0001377F70F6306071237140120B704002095
:1013000085651306C4161385840E93850596238080
:101310000700EF10A02291659306C4161386418240
:101320001385840E938505E8EF10602C1306C41610
:10133000370401209389418213854182930584AE4D
:1013400083A44900EF10C05D930784AE83D72700C4
:1013500022897D5B89C793B41400330B904037FA20
:101360000508956A81442944FD59130A0A80938A25
:10137000AA5AA54B9395D400D29583C7150003C7ED
:10138000050013FCF40FA207D98F639A57011305C8
:1013900089AEEF10502863743501AA8962848504F0
:1013A000E39A74FD9307500F63E4370163030B0462
:1013B00037A50000130585CFEF30D07AC16593853E
:1013C00005800145EFF0AFE92254B2509254025922
:1013D000F249624AD24A424BB24B224CB7A60000B5
:1013E000938686D061469305700D130520034561F1
:1013F00011BE370700201307070093172400BA9780
:101400008C4337A50000130545D1EF301064B707B2
:10141000002009479387270A63608702238007001B
:10142000B250225492540259F249624AD24A424B73
:10143000B24B224C4561828075141374F40F6363C0
:10144000870005472380E700E1BF011185451305AB
:10145000000406CE02C202C402C6EF0090549307F5
:1014600000032312F10037250140930780043EC694
:101470004C008D47130505803EC4EF003012F2404A
:1014800005618280372501404111C1451305058062
:1014900006C6EF00D01C11C5B240514541016F0096
:1014A00010785145EF00B0770547B2402381E182C3
:1014B000B707002029472381E70A410182803725A9
:1014C00001404111930500021305058022C406C6A0
:1014D000EF00F0181384318211C95145EF003074C8
:1014E00023000400B2402244410182805145EF00B4
:1014F000107385472300F400F5B77971094506D6C6
:1015000026D24ECE52CC56CA22D44AD05AC85EC633
:1015100062C4EF00F035EF00F06D71651305052032
:10152000EF00D072EFE03FF00D37EFF0CFDE014774
:101530009306F00E1306F00E81450145B704002016
:10154000EFF0AFFCB7A9000037AA0000B7AA00006F
:101550009384440237AB0000B70B0020C165FD1532
:101560000145EFF0CFCF9386C9AF6146A9455145FC
:10157000EFF05F9993060AB1414693050002514589
:10158000EFF05F9893064BB2414693052003514517
:10159000EFF05F97C53D253783C72182138C2182E9
:1015A00013842B0A638A070C9386CAB3614693059A
:1015B000F00A13058002EFF0FF94B7A600009386AF
:1015C000C6B441469305800C7945EFF0BF930147BF
:1015D0009306000A1306F00E930500050145EFF08F
:1015E000CFF2D5311305803EEF007063034704004E
:1015F000894763E4E70023000C0083C7318299C365
:1016000023000C0083470400D9E7C165938505805A
:101610000145EFF0CFC4B7A60000938646B66146F9
:10162000930540065145EFF0FF8D83470400614666
:10163000930580078A07A69794435145EFF09F8C46
:1016400037240140914513050480EF005001E31752
:1016500005F05145EF00B05C914513050480EF00A3
:101660001000E31B05EE37A50000130545B7EF306A
:10167000704FEFF07FB2F9BD01479306F00E1306ED
:10168000F00E9305A00A0145EFF02FE81305803E08
:10169000EF00F05885BF0547E389E7F60947E39176
:1016A000E7FA4164930504800145EFF04FBBB7A60C
:1016B0000000938646B66146930540065145EFF01B
:1016C0007F84B7A600009386C6B66146930580075F
:1016D0005145EFF03F83E1471307048081460146FF
:1016E0009305800713058002EFF09F8EE1471307F3
:1016F0000480814605469305800713051004EFF02A
:101700003F8DE1471307048081460146930580071A
:101710001305A005EFF0DF8BE14713070480814636
:1017200009469305800713053007EFF07F8AE147EC
:101730001307048081460D46930580071305C008F2
:10174000EFF01F8981461146E14713070480930596
:1017500080071305500AEFF0BF8793050480014509
:10176000EFF0EFAFB7A60000938606B7614693058A
:1017700080071305300CD9B5B71702409843B70658
:10178000FFF841111367170098C3D84337060200CA
:10179000758FD8C39843B706F7FEFD16758F98C3AB
:1017A0009843B706FCFFFD16758F98C3D843B7065C
:1017B00081FFFD16758FD8C39843B70600ECFD1660
:1017C000758F98C33707FF0098C723A6070202C486
:1017D00002C69843C166558F98C3B7160240056785
:1017E0009C42F18F3EC6A24785073EC4B24781E7BF
:1017F000A247E397E7FEB71702409C431397E70021
:101800006358070685473EC6324785476310F7068B
:10181000B7170240D8438966D8C3D843558FD8C379
:10182000D843B706C1FFFD1613670740D8C3D84396
:10183000758FD8C3D843C166558FD8C39843B706B0
:101840000001558F98C3984393166700E3DD06FEA9
:10185000D843B7160240719BD8C3D84313672700FB
:10186000D8C32147DC42B18BE39EE7FE4101828071
:1018700002C659BF01A001A001A001A001A001A0C2
:1018800001A001A001A001A001A001A001A001A050
:1018900001A001A001A001A001A001A001A001A040
:1018A00001A001A001A001A001A001A001A001A030
:1018B00001A001A001A001A001A001A001A001A020
:1018C00001A001A001A001A001A001A001A001A010
:1018D00001A001A001A001A001A001A001A001A000
:1018E00001A001A001A001A001A001A001A001A0F0
:1018F00001A001A001A001A001A001A001A001A0E0
:1019000001A001A001A001A001A001A001A001A0CF
:1019100001A001A001A001A001A001A001A001A0BF
:1019200001A001A001A001A001A001A001A001A0AF
:1019300001A097F1FF1F9381E1F617E10120130148
:10194000616C17A500001305A55D97E5FF1F938542
:10195000656B1386018263FAC5008322050023A00C
:10196000550011059105E3EAC5FE1385018297250F
:1019700001209385E5806377B500232005001105DC
:10198000E36DB5FEFD42739002BCFD427390428050
:10199000B76200009382820873A0023097E2FFFFD3
:1019A0009382C26993E232007390523037F5FF1F81
:1019B000930500302318B51A372902400325C900C2
:1019C00005897DF9EFF05FDB97020000938222B377
:1019D00073901234730020301C4141677917F98FDE
:1019E0001CC1232005002322050023240500B7077E
:1019F000024023260500138787006317E500D843BC
:101A00001367F700D8C382801387C7016316E50008
:101A1000D8431367070FFDB7138707036318E50063
:101A2000D8438566938606F0558FE9BF1387470430
:101A30006315E500D843BD66C5BF138787056316E8
:101A4000E500D843B7060F00C5B71387C70663166E
:101A5000E500D843B706F000C1BF13870708631637
:101A6000E500D843B706000FC1B713878740631955
:101A7000E50003A747401367F70023A2E7408280F1
:101A80001387C7416317E50003A747401367070F94
:101A9000EDB793870743631BF500B707024003A721
:101AA00047408566938606F0558FC1BFB707024051
:101AB000138747446316E50003A74740BD66EDB7AB
:101AC000138787456317E50003A74740B7060F0054
:101AD000E1BF1387C7466317E50003A74740B70672
:101AE000F000D9B7138707486317E50003A74740FD
:101AF000B706000F55BF138707496319E50003A711
:101B0000474D1367F70023AAE74C82801387074AE3
:101B10006317E50003A7474D1367070FEDB713875A
:101B2000074B6319E50003A7474D8566938606F0CA
:101B3000558FD1BF1387074CE319E5FC03A7474D29
:101B4000BD66FDB71C4161773D0794517D8F9C4573
:101B5000D58F9449D58FD449D58F944DD58FD44DF9
:101B6000D58FD451D58F9455D58FD98F1CC1DC45D5
:101B70005CC19C411CC5DC415CC582801C4189C59F
:101B800093E717001CC1828041677917F98FDDBF89
:101B90001C4101C6DD8D0CC1828093C5F5FFFD8D12
:101BA000DDBF9317350063DA0700B707024083A74C
:101BB00007407D8D3335A00082809317250063D7C1
:101BC0000700B707024083A7074DE5B7B7070240F4
:101BD0009C43C5B79317350063D70700B70702408A
:101BE00023A2A74082809317250063D70700B70779
:101BF000024023AAA74C8280B7070240C8C3828054
:101C00004DB7C9BF372702401C4B93E707081CCBD1
:101C10008280B7066745B72702409386361237970A
:101C2000EFCDD4C31307B79AD8C3D4D3D8D3828007
:101C3000D1BFB7270240984BB7060200137505F0D5
:101C4000558F98CBC8CB984B1367070498CBD847D0
:101C5000058B75FF984B8176FD16758F98CB82802A
:101C6000372702401C4BC166137505F0D58F1CCB7E
:101C70005C47858BF5FF372702405C47898BF5FF72
:101C80003727024013060010B386F50003A80600AC
:101C9000B306F50023A006015447898AF5FE910793
:101CA000E394C7FE1C4BB7062000D58F1CCBB7278B
:101CB0000240D847058B75FF984BC176FD16758F8E
:101CC00098CB828014455C4158450328C502D58FC6
:101CD000D98F1849370600A0D98F5849D98F184D88
:101CE000D98F584DD98F1851D98F5851D98F185530
:101CF000D98F1859B3E70701D98F18410A073A96C7
:101D00001CC2A1476396F6001C4293E707041CC25D
:101D100054598C4E9C42CD8FCC429205CD8F8C462F
:101D2000A205CD8FCC46C205CD8F8C4AD44AD205B0
:101D3000CD8FE206D58F5CC291676319F802145DFE
:101D4000904E9C42D18FD0421206D18F90462206EF
:101D5000D18F904AD44A5206E206D18FD58FB7066A
:101D600000A09386461036971CC38280B70700A058
:101D7000938747103E97B7070010FD17F5B7B707D1
:101D800000A00A053E951C4189C593E717001CC1B8
:101D90008280370710007917F98FD5BF9C4513F75C
:101DA000070113F8F70001C7D8413368E80083D56D
:101DB000050013F7F50F39C318418146854E3D4F95
:101DC000930F800293028004214E3396DE00B3F815
:101DD000C500631116039398260033131F011343A4
:101DE000F3FF3377E300B318180133E7E800639F8C
:101DF000F70550C98506E39AC6FD18C11307F00F11
:101E00006375B70454412146854E3D4F930F8002C0
:101E100093028004414EB398CE0033F715016392CC
:101E2000E8021317260001173313EF001343F3FFE3
:101E3000B376D3003317E800D98E639DF701232AC8
:101E400015010506E319C6FD54C18280E39457FAD3
:101E500010C94DB7E39757FE23281501DDB7084594
:101E60006D8D3335A00082800CC982804CC9828080
:101E700019C20CC982804CC98280397122DC26DAF1
:101E80002A848354450068082EC606DEED22925748
:101E900037470F001307072433D7E702C204C18076
:101EA00093F404FCC204C180B24561651305056A60
:101EB000131607014182D18C23129400835604002B
:101EC000C206C182F99AC206C1822310D40094418D
:101ED0006366D5068606B3D7D702914613970701E6
:101EE0004183BA876373D700914705064206C2074C
:101EF0004182C1832310C402231EF40083570400CF
:101F000003D7450083D6A50093E717002310F400FC
:101F100083570400558FF250C207C18393F757BF10
:101F2000D98F2310F40003D7850083D7C500D2547E
:101F3000D98F2314F40062542161828003D5650097
:101F400031667D16631EC5020D46B386C602B3D741
:101F5000D702C207C1839396470199E293E717001E
:101F6000A166D58F9306C0123307D7029306803E31
:101F70003347D7020507420741832310E402ADBF70
:101F80006546B386C602B3D7D7029166C207C1833E
:101F9000D58FD1B78357050091C593E7170023105C
:101FA000F5008280C207C183F99BC207C183C5BF08
:101FB0008357050091C593E707102310F500828031
:101FC000C207C18393F7F7EFC207C183FDB78357F9
:101FD000050091C593E707202310F5008280C20712
:101FE000C18393F7F7DFC207C183FDB783570500AD
:101FF00091C593E707402310F5008280C207C18393
:1020000093F7F7BFC207C183FDB72318B5008280DD
:1020100093F7E50F19C293E71500C207C183231890
:10202000F5008280835745010355850142055D8D8A
:102030006D8D220521810D8D133515008280411192
:1020400002C402C693D7C5012AC63EC4A247A20550
:10205000A18199CBB247D1073EC6B247884341011F
:102060006D8D3335A0008280B247C181E107EDB7A5
:1020700023A8A1828280371702405C439146B18B2E
:102080006385D700A1466386D706B7177A00938782
:1020900007201CC1371602405C4237070020130797
:1020A00007039183BD8BBA9783C607001C41B3D742
:1020B000D7005CC15442A1829D8ABA9683C60600AD
:1020C000B3D6D70014C55442AD829D8A36970347D4
:1020D0000700B3D7E7005CC55842398393763700D1
:1020E00013878180369703470700B3D7E7021CC9DF
:1020F00082805C4354434167C983F98E37F7FF1FE1
:102100000327C770BD8B89071316170163480600A4
:10211000454601476392C702C94739A80947638901
:10212000E7023D476388E70241476388E702454687
:1021300001476393C700C14785E6B746024083A6BF
:102140000680C18A8DC6B7167A009386062025A020
:102150000147D9B70547B547C5B70147BD47E9BFEF
:10216000B7160240D4421396E600E35E06FCB716AB
:102170003D0093860690B387D7021CC101DF1C4146
:10218000858301BF99C5371702405C4B5D8D48CBF5
:102190008280B7170240D84B1345F5FF798DC8CB25
:1021A000828099C5371702401C4F5D8D08CF828011
:1021B000B7170240984F1345F5FF798D88CF82807D
:1021C00099C5371702405C4F5D8D48CF8280B717A5
:1021D0000240D84F1345F5FF798DC8CF8280035751
:1021E000C501FD7739719387070422DC4AD8F98F3E
:1021F00006DE26DA231EF50089472310F502035474
:10220000C5019845894742042A894180630DF70436
:10221000680883D445002EC6B93DB245B33490005A
:102220009307002003D66500850472479445631E1A
:10223000F6062183A947B387E70229471306D00F83
:10224000B3D7D7029507C207C183B3D7E70213F705
:1022500017008583C207C1839386E7FFC206C18248
:1022600022076374D60001478947D98F03D76500D9
:10227000F250D254D98F2310F90203D7250083D707
:102280000500D98F5D8C83D745005D8C83D7C50051
:102290005D8C8567938707805D8C42044180231E97
:1022A0008900625442592161828093975400B35748
:1022B000F702294749B78357C50191C593E70740FE
:1022C000231EF5008280C207C18393F7F7BFC207C0
:1022D000C183FDB78357450009C6DD8D2312B500C4
:1022E000828093C5F5FFFD8DD5BF83560501F57737
:1022F000FD17F58F83D66500397122DC06DED58F98
:1023000003D7C5002318F5008356C500FD779387D2
:10231000379FF58F83D645002A842EC6D58F83D666
:102320008500D58F83D6A500D58F2316F50083575A
:102330004501C207C18393F7F7CFD98F231AF50060
:102340006808153BB747014093870780B245631E75
:10235000F404A2578356C4006547B387E702C20658
:10236000C186984163D5060406070356C400420699
:10237000B3D7E702130740064186B3D6E702B3F7A7
:10238000E7029206635706028E0793872703B3D7A7
:10239000E70213F77700B367D700C207C18323149E
:1023A000F400F250625421618280925765B70A07A7
:1023B0006DBF920793872703B3D7E702BD8BD58FF5
:1023C000E9BF81C98357C5000967D98F2316F50076
:1023D00082800357C500F977FD17F98FC5BF93F5C4
:1023E000F51F2312B5008280035505006D8D33352E
:1023F000A0008280B707002083A7470A37177A001A
:1024000013070720B3D7E70293F7F70F238BF18267
:102410001307803EB387E702239AF1828280B7F7E1
:1024200000E0D8438146799BD8C303D74183330664
:10243000A70290CBD4CB98431367170398C3D84314
:10244000058B75DF9843799B98C3828039714ED68E
:10245000AA8911658545110506DE22DC26DA4AD8EF
:10246000371401403D3B930700200D49E1444C00E7
:10247000130504802312F1004AC426C6EFF01F9210
:10248000930700404C00130504802312F1004AC456
:1024900026C637440140EFF07F90B7070C000C08C8
:1024A000130504804EC83ECC02CA231E0100353DF0
:1024B0001305048085453137F2506254D254425995
:1024C000B25921618280011126CAB744014022CC51
:1024D0004AC84EC606CEAE89328901449384048030
:1024E000634A2401F24062444A85D2444249B249D7
:1024F00005618280930500042685FD3565DDB3877F
:1025000089008385070026850504C205C181C13D78
:10251000C1BF1387C1801C43B73601209386C617FD
:102520003E95636BD500B70602209386068063E56F
:10253000A60008C33E858280FD57EDBF1307000F3C
:10254000B3F7E502C5E7411133D8E50206C622C458
:102550000147636CB704014E014781489302000FA5
:10256000B3D7B70263EBB8041305000A1CC2328468
:1025700033D5A502335707033355AE022314E600C3
:10258000EF20007EB7A7000003A687D483A6C7D498
:10259000EF100065EF20E0729307000248C023159A
:1025A000F400B24022444101828093161700AA969B
:1025B00083D606000507B69769BF93961800AA96BA
:1025C000814E014F83DF06003383F74163F4F70147
:1025D0003383FF4063F36E009A8E050F1A9E8906BF
:1025E000E3125FFE76979388080FADBF828003A346
:1025F000060003DE8600797126D44AD24ED052CE30
:1026000056CC5ACA5EC8B304C30122D662C666C499
:10261000330EC34123200600232206002324060094
:102620002326060023280600232A0600814881422B
:10263000014801478147014F938505F6130A000AB7
:1026400009498543930AF0098D491D4BA94B63F550
:10265000B20CAA8F0144814E03DC0F00B30C8341FE
:1026600063748301B30C6C40850E6694890FE39507
:102670004EFFAA8F814E014C83DC0F0063FD9C004E
:1026800063F3CC01054F83DC2F0063E89C00631AE1
:102690007F00850E39A0094FFDB763F4CC01E30A32
:1026A0002FFF050C890FE3195CFD83AF460063E63D
:1026B0008F0083DFA60063FBDF03C1C3639477024F
:1026C000050742074183637AEB00939738001307AD
:1026D00005BAB29798C3014789479382020513054B
:1026E000050AB5B7E39B37FF0148FDB7638A2705A5
:1026F000639037050508420813580801E3FF0BFDF6
:10270000139838003298930E05A685082322D80125
:1027100093F8F80F6399F8023254A254125982596F
:10272000724AE24A524BC24B324CA24C4561828003
:10273000E39577FA014781474DB70547854771BF54
:1027400005488D4759BF0148FDB713DE15002E8798
:10275000054385470583631AF7029388E5FFC2089E
:1027600093D80801F287854663F6D8021306F3FF73
:10277000A96E2D6F1376F60F930FF00F938E0ED672
:10278000130F0FC6637DE3048280050342031353D6
:102790000301C9B763F6F602139636002A96832E14
:1027A0000600139837002A98072708002320D8012D
:1027B000832E4600872748002322D80118E25CE2D6
:1027C000728663F9C700B2978506C207C206C18345
:1027D000C18259BF918FC207C1830582DDB793774C
:1027E000F70F054EFD1793F7F70F6391F703420EAE
:1027F000135E0E0193521E0001486313580405072F
:1028000042077D1641831376F60FADBF060ED9BF82
:102810008607FD1693F6F60FE39CF6FFB307F80262
:10282000C288C207C1838A07B386D701FA9790622C
:102830008C6363EAB800050842081358080175BFA5
:10284000B2868547F9B7B3875800C207C1838E07A0
:10285000AA97D4639C639396380053F7D510D37628
:10286000D610AA96F298C2084777F670C3F7F568B3
:10287000946293D80801D3F6E60894E3D462D3F6C1
:10288000F608D4E3946253F7E60098E2D862D3776F
:10289000F700DCE279BF411122C43714012026C2BF
:1028A00006C6930484179306841701479307841779
:1028B0001316070141826362B60413973500BA9775
:1028C000130700406395E504930500401305841742
:1028D000AD3D8567A697D8609C60A1045377E7104B
:1028E000C3F7F77027ACF4FEE397F4FE13058417E3
:1028F000B2402244924441018280131627002A9656
:102900001C62050723A206009CE2A10655B78505B7
:10291000C20523A0070023A20700C181A1075DB75C
:10292000130101CC232A91315C41832C050013074C
:102930000005232E1132B38797418583938707F6CD
:10294000B3D7E702232C8132232A91322328213363
:10295000232631332324413323225133232061336F
:10296000232E7131232C81312328A1312326B1312B
:10297000272E812E272C912E130770078507C2075B
:10298000C1836377F70423810500A38105008320B9
:10299000C133032481338324413303290133832941
:1029A000C132032A8132832A4132032B0132832B25
:1029B000C131032C8131832C4131032D0131832D11
:1029C000C1300724C12F8724812F13010134828055
:1029D000B7AB000007A40BD5B7A7000003A8C7D565
:1029E00083A787D5032C0600D30484202E89AA89C7
:1029F000138B450381443EC442C683A74900938795
:102A000007EC63F8970123019900A180A3019900C5
:102A1000BDBF138AECFF014483562A009C18B38A79
:102A20008700B386864153F506D0090AEF20A03906
:102A30008356EAFF2A8DAE8DB386864153F506D0C4
:102A4000EF2060382246B246EF108019AE862A8603
:102A5000EE856A85EF10207EEF206045AD67138715
:102A6000079EB30687009C62110413080028537563
:102A7000F51027A0AA00E31104FB9305000A8818AB
:102A8000193D530700F0AD68938608491306050BFE
:102A90002A879388084983D7060014632107D3F750
:102AA00017D08906D3F7D710D3F787185377F700D5
:102AB000E313C7FE0008AD67138607463AE8AC107B
:102AC000938707462288228D03D7270083DE67007D
:102AD00023240800131E3700131317002A9E469361
:102AE0006364D70D21089107E310B8FE87A60BD5C4
:102AF000B16622889386068983570600035E4600E6
:102B00002322080013933700939817002A93B6984E
:102B100063E2C70D21081106E310B8FE856753076D
:102B200000F087A60BD5138787D52A973E9583D7C4
:102B3000663510632107D3F717D08906D3F7C7107E
:102B4000D3F7D7185377F700E313E5FEBAF6930DE2
:102B50000406086011041929272EA4FEE39B8DFEAC
:102B6000296793070BFD130707561306000623A0DA
:102B7000070081463305DD00B305D70094619863F3
:102B80001C619106C3F7D7709CE3E395C6FE9107DD
:102B900013070706E39D67FD8504C204C180938C7B
:102BA0000C0A130B0B0391BD8356030007270E007D
:102BB0000507D3F716D042074183D3F7E71007275D
:102BC0008800210E0903D3F79718D377F70027243D
:102BD000F80039B703D70800072703008507D37724
:102BE00017D0C207C183D3F7E71007274800210396
:102BF0008908D3F7D718D377F7002722F80009BF41
:102C000069712322911223202113AA842E8913068D
:102C1000001081450A852326111223248112232EB8
:102C20003111232C4111232A51112328611123260C
:102C3000711123248111EFD0AFDC9377F90F054593
:102C4000D9EFB747FAF793870780CA9749670545D1
:102C50006367F70803C4340083C72400096A2204A9
:102C60005D8C930700033304F4024A9AEFE07FFA85
:102C7000CA8911044E8593890910EFE09FFBE39BFD
:102C800049FF93598400939A09014204156A93DA23
:102C90000A014180268C814B130B0010130AAA5A9B
:102CA00013970B01418363625707935724001395D1
:102CB000890093F7F7033387A4000A86814663925D
:102CC000D70A9306F00313970701418363F3E60ADB
:102CD0004A958A85EFE0DFF8EFE09FF50145832014
:102CE000C112032481128324411203290112832972
:102CF000C111032A8111832A4111032B0111832B56
:102D0000C110032C81105561828081470DEF83C76C
:102D1000340003C72400A207D98FC207B3E74701D5
:102D20003EC09147B386F40094423307F100910707
:102D300014C3E39967FF8A854A85EFE07FF2850B2C
:102D4000130C0C10B1BFB306FC0094423307F10022
:102D5000910714C3E39967FF13958B008A854A9501
:102D6000E9BF0C438506C2060CC2C18211071106D9
:102D7000B9B7139727000A97232007008507A1B743
:102D8000530500F037C70000872607C9814713079E
:102D90000003B386F5009862B306F5009C62537792
:102DA000D7109107C7F7D77043F5F750E393E7FEC5
:102DB0005DAC03D78183AA876379E500130715000B
:102DC0000607054563C1E502828003D6C1831397D8
:102DD000150093063500329703D6E18305450606B4
:102DE000118F63C9E60203D7A18363F9E700850564
:102DF0008605B3A5B70013C515008280139517008B
:102E000083D7E1838D053E9583D7C18386071D8DCA
:102E100033A5A5008280397106DE22DC26DA4AD885
:102E20004ED652D456D25AD05ECE62CC66CA6AC84A
:102E300022E68349350083472500A209B3E9F9005A
:102E4000239E318303C9350083C7250022093369D6
:102E5000F900239F218393161900FD5763C5360F90
:102E600013971900FD576340270F330727418D47FC
:102E7000B38636410607B3C6F602130445009384B1
:102E80004500A6852285054A854A054B3347F7024A
:102E9000239CD182239DE182E5355304A520138C28
:102EA0001A00420C135C0C01E2855A851937FD5C4F
:102EB00019E5A28513850403E135D31C15C0930BD6
:102EC0001B00C20B93DB0B01D6855E85DD357D5D76
:102ED00019E59305040326856535531D15C0E28564
:102EE0005E85C13DFD5701E9930504031385040385
:102EF000413DD31715C0668763739D016A87BA8603
:102F000063F3E700BE86D3F716D05374F400636909
:102F1000F7001304040393840403E28A5E8B31A058
:102F20006393960593840403E28A050A420A135ABE
:102F30000A0163743B01E3E42AF7D3770AD05374A0
:102F4000F418D31714C0F2506254D2544259B259F3
:102F5000225A925A025BF24B624CD24C424D32647E
:102F60003E8521618280130404034DBF5D71A2C4BC
:102F700022FE86C626FC5304A52079229387018170
:102F80008043FD576307F406D32784A0BDC3D30451
:102F900000F0D39784A0B1EF5305842097970000E9
:102FA0009387C7D03EC602D4EF10F0612ACC2ECE54
:102FB0002AC82ECA29C417970000130727CE10432A
:102FC0005443D32794A032D036D2D9C389473EC4C4
:102FD000631CF406EF20E026930720021CC1A257D1
:102FE000A1CBEF200026A25792551CC10255EF102D
:102FF000106CB64026447274E27461618280179747
:103000000000130727CA10435443D32794A032D09B
:1030100036D28DEB85473EC42800E9261DCD1775B5
:103020000000130565BDC9262AD02ED2A257D5FBB4
:1030300002559255EF10B067B64026447274E274A0
:103040006161828089473EC42800692E65F159B7C5
:1030500085473EC48947E311F4FCEF20801E9307A7
:1030600010021CC16DBF5D71A2C422FE86C653044E
:10307000A5205D24938701818043FD57630AF400F6
:10308000D32784A091C7D30700F0D317F4A091E70A
:10309000B64026447274616182805305842085475E
:1030A0003EC4979700009387E7C03EC602D4EF1056
:1030B00090512ACC2ECE2AC82ECA1DC80146814660
:1030C0003285B6850D2E2AD02ED289476314F4029C
:1030D000EF202017930710021CC1A2578DE3025561
:1030E0009255EF10D05CB6402644727461618280C4
:1030F00002D002D22800FD2461DDA257EDD3EF20DB
:103100004014A2571CC1E1BFD30705E093961700F6
:103110003E87C9C263C90708B706807F63D4D71446
:10312000B7068000014863DBD700179700008727A8
:1031300027B9D377F5101D58538707E0B7058000EE
:103140001386F5FFB7064B00798E938606B2B296CA
:10315000ED8EB707803FB58FD18F5D87538707F01E
:10316000130717F81305F600C1154297DD86179867
:103170000000872728B5E98D3697D377F7089DE9B2
:10318000530700F0D3A7E7A0EDC35305E72063176B
:1031900007148280D30700F09797000007A507B2B5
:1031A0005375F51882805375A508D30700F0537541
:1031B000F51882809797000007A507B253F5A7007E
:1031C0009797000087A647B29797000007A207B21B
:1031D0009797000007A1C7B19797000007A707B00E
:1031E00053F5A7189797000087A187AF979700001E
:1031F00007A047B09797000087A0C7AEB767CFFF7B
:10320000B7C63500938707C393868628B29733865F
:10321000C6405D8ED37207D0D375A51053F6B51096
:10322000C376D6204377E618C3F6C6104377C7089F
:10323000C3F6C600D3F6B6104377C7686357C00617
:103240009797000087A607A9D3F6D710D3F6F610F4
:103250005377D7005377A7102DE353F5E60853F5BE
:10326000A70882805375A50082809797000007A762
:1032700067A69797000007A5A7A54BF5A77053F77A
:10328000F7105375E51061DFD37607D097970000EC
:1032900007A787A39797000007A647A34BF5E6501B
:1032A0005375F50847F5C650828053F7E708537702
:1032B000A71021E753F5E70882809797000007A53C
:1032C000A7A043F5A2709797000007A727A053F582
:1032D000A6085375F50847F5E2508280537507D06C
:1032E0009797000087A7479E9797000007A7079E1C
:1032F000D377F5104375E57882809797000007A58E
:10330000A79C4BF5A2709797000007A7279C5375C1
:10331000F50847F5E2508280D30605E03707807F45
:1033200093971600858363F9E708530505E0D1C339
:10333000B68763CD06083376D70013D7764105E20A
:1033400013968600634D0608814611A0B286860753
:103350009395870013861600E3DA05FE158FB706EE
:1033600080001386F6FFF18F130717F8DD8E1376B2
:1033700017009397160021EA13581740E5460145B8
:103380008145370700013386E500FD1663C6C70097
:10339000B305E600918F3A9586070583EDF699C34C
:1033A000050579990585B707003F3E951317780104
:1033B0003A95530505F08280C377A550538507E001
:1033C000530505F08280939726007DB7D377A50833
:1033D000D3F7F718538507E0530505F08280FD56B3
:1033E000158FB5BF0145828097970000938707919D
:1033F0008843CC438280397126DA06DE22DC4AD843
:103400004ED652D456D25AD05ECE62CC66CAAA8468
:10341000732B200013D545011394C5001375F57F58
:10342000318013DAF50179C99307F07F630DF51048
:1034300093DBD4010E0433E48B00B70B8000139CA4
:103440003400B36B7401930915C08144814C014968
:1034500093D746011394C60093F7F77FB285318066
:1034600093DAF601A5C31307F07F6380E704131511
:1034700034001354D601498C938717C03705800058
:1034800093153600498CB389F9400146B3465A0179
:10349000BD47368863E6971C179700001307878699
:1034A0008A04BA949C40BA978287418E9389198086
:1034B00079CE9317C40093E434000D46E3C807FCAB
:1034C0004149E9B7B367C400CDCF63030436228511
:1034D00032C4EF10B04F2246130755FFF54793054E
:1034E00085FF998F3314B400B357F6005D8CB31584
:1034F000B6004E959309353F014649BFB36B940022
:10350000638B0B0636C632C4630204302285EF108B
:10351000F04B2246B246AA89130755FFF54B138C90
:1035200089FFB38BEB4033148401B3DB7401B3EB3D
:103530008B00339C84011305D0C0B309354181440D
:10354000814C014931B7B36B9400638F0B00931723
:10355000C400268CA28BB1449309F07F8D4C414965
:10356000E3D807EE0149EDB5A144014C9309F07F82
:10357000894C0149F1BD9144014C8149854C014977
:10358000C1BD93E4140001448145054601B793E4AD
:103590002400014481450946D5BD81461307F07FCB
:1035A000B70708000144B2075207B183FE06D98F5E
:1035B000D58F2285BE856312090AF2506254D25417
:1035C0004259B259225A925A025BF24B624CD24C87
:1035D00021618280014781470144F1B752885E84AE
:1035E000E285668689476301F6528D47E307F6FA5E
:1035F00085476300F64C1386F93F635AC02893F75A
:103600007500639407428D81C2869317740063D856
:103610000700B70700FFFD177D8C1386094093074D
:10362000E07F63CBC72E1317D40193179400B183A7
:103630003364B7001377F67FBDB71307F07F814778
:10364000014495B7568879BF136989009307F07FC5
:10365000FE06D207D58F0145BE8573201900B1BF84
:10366000636E7421638A8B20E287FD19014C22046A
:1036700093D88501B3E8880013D3080133D46B02D3
:10368000139E0801135E0E0113D70701939E850058
:10369000B3FB6B0233068E02C20B33677701637B89
:1036A000C70046979305F4FF636A172D6378C72C0C
:1036B00079144697118F33556702C207C183337758
:1036C0006702B302AE024207D98F63FB5700C69769
:1036D0001307F5FF63E2172B63F0572A7915C69796
:1036E0004204C163498C1385F3FF3376A4009355DC
:1036F000040113DF0E0133F5AE00B30FC502B3872B
:1037000057403306CF0213D70F01B382A502169696
:103710003297B385E503637357009E95C162FD122E
:1037200013560701337757004207B3FF5F002E9609
:103730007E9763E4C7126380C7123307EC40918F12
:10374000333CEC00B38787411386F93F638FF82A37
:10375000B3D5670293560701B3F76702B30FBE02F2
:10376000C207D58F63FBF701C6979386F5FF63E029
:10377000172F63FEF72DF915C697B387F741B3D618
:10378000670242074183B3F76702330EDE02C207C6
:10379000D98F63FBC701C6971387F6FF63EB172B1F
:1037A00063F9C72BF916C697C205D58D9396050107
:1037B00093DF0501C1823383A602B387C741B306F5
:1037C000DF02135703013385AF02AA963697330FF2
:1037D000FF036374A700C166369F41657D1593564C
:1037E0000701698F42073373A300369F1A9763FA64
:1037F000E717C6979386F5FF63E2172D63EBE7277C
:10380000638AE735B68593E51500C5BB2685EF10BD
:10381000F01B13075501F145930905022246B246F4
:10382000E3DEE5CE130485FFB39B8400014C21B396
:10383000328532C4EF10901913075501F146AA875B
:10384000224613050502E3DBE6C8138487FF8145A2
:103850003314860079B9E372ECEE769CB335DC0163
:10386000C695AE979305F4FF63F2F81063E8C718A6
:103870006304F6182E84D1B5E368BCDE1397FB0110
:1038800093571C0093DB1B00D98F7E0CCDB3C286EF
:1038900035E613F67500A28863120624618013448E
:1038A00014001376140085471385E9413397A80067
:1038B00033D4F500B395A500598CB335B0004D8CC9
:1038C0009375740033D7F80099C9894713691900B3
:1038D0006306FB2E8D476308FB2C63050B289317AB
:1038E000870063DD0722136919008547E30206D6C6
:1038F0000546814701441369290081A08547918FBE
:1039000013078003635CF7084D8C63160414136976
:1039100029000146814715A08947630CFB0C8D47A0
:103920006300FB0663000B06370410009307F4FFE7
:103930001306E07F7D54136959001397C700318344
:1039400093174601FE06D98FD58F2285BE85732039
:103950001900A5B10145B705F87F41497320190049
:10396000A9B9E392E7EBE30A07C861B5E394F8F07D
:10397000E37EDCEF2E84D1B33A859DB32E841DBB4C
:10398000E31408FA1306F07F814701446DB78547B9
:10399000918F130780036340F70CFD557D47635EED
:1039A000F7220557118F130600023357E40063878F
:1039B000C7001385E9433314A400C18D3334B0002C
:1039C000598C9377740099CB894713691900630563
:1039D000FB1E8D476307FB1C63040B180D8081479A
:1039E000137619000147E30006BC0146136929005C
:1039F000A9B7E30B08F279B7E37EECE6769CB33522
:103A0000DC01C6957914AE970DBB6353C008894796
:103A100013691900630EFB0A8D476305FB0A630BEC
:103A20000B0EB7050020FD15CDB6894713691900A7
:103A30006301FB0A8D476308FB08E3160BBC93F791
:103A4000F5001147C286639EE7168D817DBEB6855F
:103A50002DB3BA8691BB894713691900333400012D
:103A6000E307FBEA8D470144E313FBEA1334180034
:103A700079BD93961E00B3BED601F698C697F91588
:103A8000B68EE392E7D9E30AD7B793E51500B5B64A
:103A9000E31F06EE894713691900630DFB0E8D477E
:103AA000630EFB0C63070B12A288FD55930910C02F
:103AB000F5B3C286014781470144F5B4B685E38476
:103AC000E7FD91B3FD55630E08068D81854635BE31
:103AD000FD55631F08048D81814605BE8947136922
:103AE0001900630DFB0A8D47630DFB08E3180BDA21
:103AF00093F7F5001147E383E7DA93B7C5FF93C760
:103B00001700A2883E9459BBC2861307F07F8147F5
:103B1000014451BC854781453E94C5BC931797002D
:103B20000D807607B183598CE31C06EA0147A5BCDA
:103B300093878500B3B5B7002E94854693D537009B
:103B4000E9B493878500B3B5B7002E94814693D529
:103B5000370065BCE3EFEEF0B685E318D7F371BC30
:103B6000054601479377F4009145E38AB7D693075A
:103B7000440033B4870022973E8495B3FD559309E2
:103B800010C0A288E31C08D093B785FF93C7170025
:103B90003E9429B3A288FD55930910C0E30008D0D4
:103BA000E5B705460147E31C08D29307840033B408
:103BB000870022973E8425B305460147E30108D2DA
:103BC000EDB793B7C5FF93C7170091058D813E945C
:103BD0002DBCFD55930910C00DB7A2880546E9B16B
:103BE000397152D406DE22DC26DA4AD84ED656D2B5
:103BF0005AD05ECE62CC66CA2A8A732B200013D9B3
:103C000045019399C5001379F97F93D9C90093DBD6
:103C1000F501630E09129307F07F630DF916135433
:103C2000D5018E09B36934013704800033E489007B
:103C300093143500130919C0014A814C814A93D766
:103C400046019399C60093F7F77FB28593D9C900CF
:103C500013DCF601D5CF1307F07F6384E7041395D7
:103C600039009359D601B3E9A900938717C03705E6
:103C70008000B3E9A900931536003E99014833C688
:103C80008B01BD47B2861307190063EF47171785ED
:103C900000001305250B0A0A2A9A83270A00AA970F
:103CA000828733E6C9001309F97F630806129397E8
:103CB000C900136A3A000D48E3C307FCC14AC1B703
:103CC000E2864E84AE84C28C89476389FC128D479C
:103CD000638BFC10854736866392FC4C0147814715
:103CE0000144B2075207B1837E06D98FD18F228556
:103CF000BE8563990A34F2506254D2544259B25983
:103D0000225A925A025BF24B624CD24C2161828061
:103D1000B3E7C900CDCF638A09344E8532C4EF10B2
:103D2000E04A2246AA87930655FF7547938587FF89
:103D3000158FB399B9003357E600B3693701B3154E
:103D4000B6003309F9401309D9C001480DBF33E467
:103D5000A90025C836C632C46389092E4E85EF10E6
:103D6000E0462246B246AA87130755FF754493845E
:103D700087FF198CB399990033548A003364340156
:103D8000B3149A001309D0C03309F940014A814C99
:103D9000814A75B533E4A90011CC9397C900AA8470
:103DA0004E84314A1309F07F8D4CC14AE3D907E8AC
:103DB000814A71B5214A81441309F07F894C814AB7
:103DC000BDBD114A81440149854C814A8DBD136AAC
:103DD0001A008149814505485DB5136A2A00814969
:103DE0008145094869BD01461307F07FB707080000
:103DF0000144C5BD8947DE86E39BFCEC368613078C
:103E0000F07F81470144F1BD41639307F3FF13D570
:103E1000040113DE0501FD8CFD8DB3879502B30807
:103E2000B50293D3070133089E024698C293330824
:103E3000C50363F313011A984163930EF3FF93D202
:103E40000901B3F9D901B3F8D301B3F7D701C20817
:103E5000B38E3403BE9893D30301B30F350313DF3E
:103E60000E01B3849202FE94FA94B307550263F3F1
:103E7000F4019A974163930BF3FF135A04013375CE
:103E80007401B3FF7401C180338FF4003384A50241
:103E9000B3FE7E01C20FF69FFE93B307AE02935EA0
:103EA0000401B305BA02AE97BE9E330E4E0363F310
:103EB000BE001A9EC1679385F7FF33F3BE006D8C79
:103EC0004203229393DE0E01B3053503769E3385BC
:103ED000A20213D40501B3093A034E952295B38289
:103EE000420363733501BE92C16EFD1EB377D501E7
:103EF000C207B3FED501F697B3057800B3BFF5014D
:103F0000FA979A953384F70133B86500B30EC4016C
:103F100033830E013334F401B3B7E701C18F333873
:103F200003011354050133BECE013E9433680E01E4
:103F3000429493949500169413557301B3E41401BD
:103F40002604B3349000DD81498CCD8C2603931771
:103F50007400B3E4640063DB070093D71400858822
:103F60009315F401DD8CCD8C05803A891307F93F58
:103F70006359E00493F7740099CB894793EA1A00D8
:103F8000630BFB208D47630DFB1E630F0B1C931708
:103F9000740063D80700B70700FFFD177D8C130777
:103FA00009409307E07F63C9E71093D63400931765
:103FB00094009314D40133E4D400B1831377F77FD2
:103FC0000DB38547998F79E393F57400228781CDEE
:103FD000094793EA1A006309EB200D47630DEB1EB6
:103FE0002287630F0B1C618313471700937517001B
:103FF0001309E9413397240133192401B3D4F400A0
:104000003337E000B3649900D98C13F5740033574B
:10401000F40019C9894793EA1A006308FB1E8D470B
:10402000630AFB1C63080B1E9317870063D00718F5
:1040300093EA1A00639605167E06B7071000D18F23
:104040000145BE8573A01A007DB1EF10201813073B
:104050005501F145930705022246B246E3D8E5D063
:1040600061153314AA00814431BB328532C4EF108C
:10407000E015930655017147930705022246E35662
:10408000D7CA61158145B319A60065B993058003A8
:1040900063D9F506458C01CC894793EA1A0033347D
:1040A000D0006306FB008D4701446301FB1893EACF
:1040B0002A008146814715A08947630CFB0C8D4778
:1040C000630EFB08630D0B08370410009307F4FF21
:1040D0009306E07F7D5493EA5A001397C70031831B
:1040E000939746017E06D98FD18F2285BE8573A016
:1040F0001A0011B10145B705F87FC14A73A01A0033
:10410000DDBEFD4563D7F51285553387E540930540
:1041100000023357E4006387B7001309E9433314FF
:104120002401C18CB3349000D98C93F7740099CBDF
:10413000894793EA1A006308FB0C8D47630AFB0A60
:1041400063080B0C13D43400814793F61A0001471F
:10415000E38906B8814693EA2A0041B7B5F693068B
:10416000F07F8147014485BF93F7F4009145E380D8
:10417000B7E293874400B3B497002694BE8401BD90
:10418000E39706E093878400B3B497002694BE8437
:10419000FDBB9DDAE9B7E38C06DEEDB73A89F9B3EA
:1041A00085468147014493EA2A0005BF931797008B
:1041B00013D434007607B183598CC1F9014715B681
:1041C00093F5F4001145E380A5E213B7C4FF13474C
:1041D0001700229709BD2287E39706E013B784FFF3
:1041E00013471700229701B52287E38E06DEFDB73D
:1041F00085450147E39A06E293878400B3B49700AC
:104200002697BE8415B585450147E38F06E0EDB7D7
:104210008545014793F7F4009146E387D7E09387FC
:104220004400B3B497002697BE84FDBB13B41600B8
:10423000BDBD854575BB011106CE22CC26CA4AC834
:104240004EC652C4F3292000370810007D1833777A
:10425000B80093D846013378D80013D44501131E13
:1042600037009357D5010E081353D60193F8F87F02
:10427000930EF07F93D4F50133E7C7011374F47FF5
:10428000131E3500FD8233680301931536006382E7
:10429000D81D93C61600330314416387D4166353A5
:1042A000601C63840822B70780003368F80063024B
:1042B000D46D9307800363CD673AFD4763C26752AD
:1042C00093070002B387674033D965003316F800BF
:1042D000B395F50033662601335368003339B000D7
:1042E00033662601330767403309CE4033362E014B
:1042F000118F9317870063DA072A131A9700135A4E
:104300009A00630B0A345285EF00506C61159307D5
:104310000002898F3317AA00B357F900D98F331AD7
:10432000A90063408532018D13071500FD4663C067
:10433000E64493060002998E3359EA003396D7007B
:10434000B316DA0033662601B336D0003369D600DF
:1043500033D7E700B367E9006380071693777900E6
:1043600093151900131617009356F90113F57500EC
:10437000B296014311C909466381C9660D460543DA
:104380006385C9646388096237060001F18E13B53D
:104390001600E38C071001448947638CF9268D478A
:1043A0006388F92863820924B7058000F98D0543E5
:1043B00019C1136323006383054A05049307F07F43
:1043C0006303F420B70780FFFD17F98F1396D70119
:1043D00013593900A60733662601B1831374F47F9D
:1043E00085881397C70052043183FE04418F458F9F
:1043F0003285BA856314032AF2406244D2444249AA
:10440000B249224A05618280635D600C638C0816A4
:10441000B70780003368F800630AD451930780031C
:1044200063CC6736FD4763D06746130603FE9307E8
:1044300000023356C800630AF30093070004338375
:10444000674033186800B3E50501B335B0004D8E01
:1044500081AEB367B8001303148099E393C61600C6
:104460006381D4086315030C9307140093F7E77F67
:1044700063920724B36EC701B367B8006312045A8E
:10448000638E0E486382074A3305BE40B337AE00E1
:10449000330607411D8E9317860063D4076A33895C
:1044A000C541B307E840B3B525013387B740B367CB
:1044B000E900B684E39407EA014601440143B207E8
:1044C000B1831374F47F858829BFB367B80063860E
:1044D000071A9307F3FF638007486309D3453E83B8
:1044E000C9BB631003209306140093F7E67F639A19
:1044F000074EB366C701631E043EB367B800638A04
:10450000065A638307423309BE00B30707013336F7
:10451000C9013387C70093178700E3DD07E2B707B8
:1045200080FFFD177D8F05449377790069A0B387DD
:104530008840631304203365C70125C11385F7FF45
:10454000630F05541303F07F63866760AA87130621
:104550008003634BF62A7D466348F650130500023C
:104560001D8D3316A7003353FE003315AE0033669E
:1045700066003339A000B357F700336626013308CD
:10458000F84079A4B367B800EDCB9307F3FF6380DD
:104590000732630BD34B3E8351B51307F07F638A19
:1045A000E75E42872E893E84B684B367E900E3055F
:1045B00004DA937779000145E39007DEB7058000C0
:1045C000F98D0143CDBB638F090C8D47638BF90CCB
:1045D0008947638BF93013635300B70700207D567A
:1045E000FD171304E07FE1BDB70580009377F90064
:1045F00091460543F98DE38DD7DA9337C9FF93C709
:1046000017003E97B7058000F98D1109E31305DA0D
:104610005DB3E38B04D89307890033B62701329743
:10462000B7058000F98D3E890543E31405D861B3D1
:10463000FDD00543B7058000F98D8544E31B05D601
:104640009DBB370780FF7D177D8F5289098CB3672B
:10465000E900E30304D0B1BF4A85EF003037930788
:1046600085FF7D476105B317F900E34CA7CA45B143
:104670003368B8003336000185B9630FD331B7050D
:1046800080001A84F98D7289014335B363888848A4
:10469000639F07480145B705F87F41437320130026
:1046A000A1BB95F81363530085881304F07F8147FD
:1046B000014605BB3309BE40B3372E01330A07411B
:1046C000330AFA4093178A0063C20734B36749017B
:1046D000E39907C29384E9FF93B4140001460144AF
:1046E000F9BBB3878840630E041237058000930638
:1046F000F07F498F6387D8509306800363C1F636F5
:10470000FD4663C3F646930600029D8E3316D7001E
:104710003355FE00B316DE00498E3339D000B3574F
:10472000F700336626013E983309B600B337B90067
:1047300033870701468495A8370380001305F07F6F
:1047400033676700E395A8E0B365B800638205208E
:104750000E060D829317D801131798005D8EB6844C
:1047600093573800014363460710414319A20515CA
:104770009306000233D5A700630AD700930600040E
:104780003387E640B397E700336AFA00B337400156
:10479000C98F3E890147C9B63368B8003336000176
:1047A0003309C6013336C901329793178700E3DE18
:1047B00007DE05049307F07F6303F408B70780FF63
:1047C000FD17F98F1376190013571900598E139995
:1047D000F7013369C90013D7170093777900E1BB5C
:1047E000130603FE930700023356C800630AF30062
:1047F000930700043383674033186800B3E505016D
:10480000B335B0004D8ECDB43366C7013336C0002A
:104810003389C540B3B725013307F8404684B684D1
:10482000C9BCB366C701638906289386F7FF638B0B
:1048300006381305F07F638EA740B68775BD638386
:1048400009208D47638BF93E8947638FF93C63905C
:1048500009441304E07F01470D4915439317D7011D
:10486000135639009306F07F5D8E93573700E31897
:10487000D4C4D18FE38A07E281441304F07FB707E1
:1048800008000146B9BE93070002B387674033D9D9
:1048900065003316F800B395F500336626013353EF
:1048A00068003339B000336626011A97D5BD330945
:1048B000BE00B30707013336C9013387C70093171A
:1048C00087000544E3D707CEB70780FFFD17F98FB0
:1048D000135619001399F7013369C90013D717004C
:1048E000094493777900C1B913635300E38704CE79
:1048F00065BB9307F07F6300F42E6388F81E638C1A
:10490000061E3368B800E31908F61316350093172E
:10491000D7010D825D8E93573700A1BF638B0716B9
:10492000814742872E8EB68472891DBC3366C701CB
:104930000DC2370340000E05337367001316D7010D
:104940000D8113331300498E93573700120315B7A7
:10495000B684014391BB3309BE40B30707413336E8
:104960002E013387C740931787000544E3C7079894
:1049700089B13366C70171DE370340001316350075
:10498000337367009317D7010D82133313005D8EC5
:10499000120393573700F1BDB367C701CDEB014751
:1049A000014E01439317D70113563E005D8E935776
:1049B0003700C1B513F6F5001145E307A69C93B582
:1049C000C5FF93C51500AE96C1B2E39F049A13B616
:1049D00085FF13461600B29645BA0543E386049A4E
:1049E000FDB79307F07F6381F60EF295B3070701D9
:1049F00033B7C501BA971396F70185813369B600BD
:104A000013D7170036849377790075B63389C5417B
:104A10003308E840B3B52501330AB840B684D5B0B1
:104A20009305F07F6301B40E638AB80EE3820EC66D
:104A3000E39407E40E051316D7010D81498E9357B1
:104A4000370005BD15438DB1B367C70199D337034F
:104A5000400033736700133313001203A1B73366AA
:104A6000C7013336C000C9B1138607FE1305000223
:104A70003359C700638AA70013060004B307F64042
:104A8000B317F700336EFE003336C00133662601DC
:104A900041B39384E9FF93B4140001460DB4338904
:104AA000C541B307E840B3B525013387B740B684A5
:104AB0005DBD42872E894DB01307F07F6388E70EF6
:104AC00042872E893E84D5B4E38E09F68D476385EF
:104AD000F91C8947638AF914639B091A0145154338
:104AE0001304E07F7D577D5909BEB365B80063921A
:104AF0000510E39C06E00E069317D8010D825D8E2B
:104B000093573800BDB3E3830EB89315970063C382
:104B1000050041439305F07FE39CB8F063880712DA
:104B20009317980063C307004143E3970ED493178C
:104B300036008D831316D8015D8EB68493573800E6
:104B40000DBBB367C500B1D72A8E93777500328746
:104B5000728939B0B365B800E38C05DE931736006F
:104B60008D831316D801CDBE138607FE930600026F
:104B70003359C700638AD70093060004B387F64011
:104B8000B317F700336EFE003336C00133662601DB
:104B900061BE336EB80063020E0E93179800428711
:104BA0002E8EB68463CE07004143EDBB336EB80052
:104BB00063010E0E9317980042872E8EE3D607FEF0
:104BC0000143CDB33309BE00B3070701B335B900C4
:104BD0003387B700EDB1D5C69317970063C30700BD
:104BE00041439307F07FE39EF8D0B365B800E38EAE
:104BF00005D09317980063C307004143E38D06EE89
:104C0000A5B9B365B800E38605D4370340000E06A6
:104C1000337368009317D8010D82133313005D8E30
:104C2000120393573800B1B1E39E04E01304E07F10
:104C30007D577D5915436FF04FF8E38504E0130469
:104C4000E07F01457D597D571543EDB2E3840EA405
:104C5000D5B3B365B800E38E05CE37034000931794
:104C60003600337368008D831316D8011333130095
:104C70005D8E120393573800EDBE0147B6840143A1
:104C800015B3E39A88E6B365B800A5F5ADB515434D
:104C90002DBA0147014339B3E38604DA0145130411
:104CA000E07F7D597D57154371B2B7058000F98DBE
:104CB0000144639206F0630003F0136323006FF076
:104CC0008FEFF32720003706100013D74501930715
:104CD000F6FF1377F77F1308E03FED8FAA86FD817B
:104CE000634FE80011C70145854673A01600828016
:104CF000C98F014585C3854673A01600828081C592
:104D00000145C146DDB79305E04163D6E5007D5519
:104D1000C146E1BF828093053043998D7D48D18F94
:104D2000634FB8001307D7BEB316E5003397E7000B
:104D30003355B500B336D000598DC5FA82801306BD
:104D400000026387C5009306D7C0B396D700C98E0B
:104D500013053041198DB336D00033D5A700F1BF0C
:104D600015CD411122C406C62A848D219306E04147
:104D7000898EA94793F6F67F63DCA7025515B31712
:104D8000A400B207B1830147B2402244B207D20661
:104D9000B183D58F3A85BE854101828081478146A6
:104DA000B207D206B1830147D58F3A85BE8582808E
:104DB0002D47098FB357E400B20713075501331786
:104DC000E400B183D1B7411106C622C426C2D3077D
:104DD00005E07327200013D577011375F50F13072E
:104DE0001500139497001377E70F258093D4F701EC
:104DF0001DC393573400130505387604B2075205D6
:104E0000B183C98FFE04C58F2285BE85B24022447E
:104E10009244410182800DE935C42285452EA9477F
:104E200063C1A7082D47098F930755013357E40045
:104E30003314F4009317C700130790383305A740C5
:104E4000B1831375F57F5DBF15C837070800935709
:104E50003400D98F370710007D171316940093166E
:104E6000D401F98F635306027D8F9397F401B70441
:104E7000F07FD98CC58F3685BE8549BF1305F07F7D
:104E80008147ADBF0145814795BF7D8F9397F40161
:104E9000B704F07F458FD98F3685BE8573601800C3
:104EA000B5B7130755FF3317E400014461B7F32882
:104EB000200093D645011397C50093F6F67F318302
:104EC000138816000E071356D5011378E87FFD816D
:104ED000518F93173500630B080A138606C8130811
:104EE000E00F635FC802638F08128D476380F82666
:104EF00089476387F826639608261306E00F0D4757
:104F000015451A0725831376F60F931797005E064B
:104F1000A583FE05D18FCD8F3DE5538507F08280B7
:104F2000635AC0101A053335A0000E07F583498F68
:104F30005D8F937777000145E9D78947638EF81E27
:104F40008D476388F81681470545E39C08FA9376F8
:104F5000F70011480545638406011107054599C30B
:104F60001365250093175700E3DD07F8050693073F
:104F7000F00FE318F6F813655500639C0810FE0562
:104F8000B707807FCD8F7320150041BF3366F700D0
:104F9000A9EA9397F50151D28947638DF8168D4799
:104FA0006385F8140547894785466389081EED83A4
:104FB00093C71700858B0545638106208946638565
:104FC000D8188D466388D8160146E38208F805454F
:104FD000639A0710931757000546E3C407F201468A
:104FE0000DB715CA9307F07F01456398F6003706A1
:104FF0004000718F13351700120537074000130664
:10500000F00F9317970081455E06A583FE05D18FAB
:10501000CD8F01D58DBFFE05B707807FCD8F53851E
:1050200007F08280FE05B707807FCD8F154573207E
:105030001500E5B525556347A60879453703800077
:10504000118D7D48336767006358A80A7958330685
:10505000C840130800023356C70063070501938652
:1050600026CAB316D700D58F3337F000518F9397E8
:10507000F501E30407EA9317170013F67700937618
:10508000770063100610ED8393C71700858B0145E9
:1050900025B78D476383F80C89476384F808370781
:1050A00000FF7917FE050583B367B700732015006D
:1050B000ADB581472E85E39405EA21070545E391C7
:1050C00007EA4DB509476387E8048D47638FF80009
:1050D000638C0804638FE80C6389F80C85470547E7
:1050E000638808043E850146A5BD85460547894776
:1050F000E39F05EAA10765BD938626C83396D700CE
:105100003336C000B316D700B3D7A7003367D60035
:105110005D8FB1BF854605478947E38A05E8A1074A
:1051200079B5B5DD8545A1BD05470146854705B57E
:10513000014625B50146BDBF81470545E38105E22E
:105140002107E39F07E039BD0146C5BF85E1B707E9
:10515000807F154573201500C9B3E38205E281B74E
:1051600099E97D571306E00F154509B51306E00FC1
:105170007D571545C5BBB70780FF15457320150042
:1051800069BB0946E38BC8F80D46E383C8F6E39094
:1051900008E213F6F7001145E30BA6E09107ED8353
:1051A00093C71700858B054501BD05470146854717
:1051B00011B705470146854749B7E38D07E005F577
:1051C000931757000546E3CE07D211BDC167637E32
:1051D000F5029307F00F1307000263ECA70097771F
:1051E0000000938727BAAA9703C507003305A74095
:1051F00082802181977700009387C7B8AA9703C55B
:10520000070061473305A7408280B7070001636E3E
:10521000F5006181977700009387C7B6AA9703C509
:10522000070021473305A74082804181977700001E
:10523000938747B5AA9703C5070041473305A740A1
:105240008280938741818843828039713EDA2ED2F1
:1052500032D436D63AD842DC46DE9387418122CC1E
:10526000804326CA06CEAA8409C41C4C99E3228531
:10527000512B0C4454102686228536C6EF009054DC
:10528000F2406244D24421618280011126CA4AC898
:1052900006CE22CC4EC652C4AA842E8901C51C4D0E
:1052A00091E38D239C4C804499E32685A12B97772D
:1052B0000000938727BF631CF402C0408357C400DB
:1052C000A18BB1C71C48A1C7FD59294A1C4483457D
:1052D0000900FD17B1E91CC463DE07062286A94553
:1052E0002685F528FD576308F502294535A09777EF
:1052F0000000938727BD6314F4008044C1B79777FB
:105300000000938727B8E31BF4FAC04445BFA28589
:105310002685712255D97D55F2406244D2444249D6
:10532000B249224A056182801CC4050963D707007F
:10533000184C63CBE700638945011C4013871700B5
:1053400018C02380B70059B7228626854928E31F55
:1053500035F7D1B71C401387170018C029472380A1
:10536000E70061B793874181AA85884339BF1971E6
:10537000A2DC86DEA6DA3284635B06009307B008FF
:105380001CC17D55F6506654D6540961828036861C
:10539000930680202EC42ECC231AD100814519C03B
:1053A0009305F4FFFD572EC82ECEBA862C00231B82
:1053B000F100AA84EF005012FD576355F5009307E2
:1053C000B0089CC061D0A2472380070065BF9387C7
:1053D00041813687B2862E86AA85884349BF01114E
:1053E00022CC26CA4AC806CE4EC6AA842E8932844A
:1053F00001C51C4D91E3392197770000938787AA57
:105400006319F406C0401C4C1CC48357C400A18B14
:10541000C9C31C48BDCF1C4808409379F90F1379C4
:10542000F90F1D8D5C486346F500A2852685652C25
:105430002DE51C440505FD171CC41C4013871700EF
:1054400018C0238037015C486389A7008357C400D4
:10545000858B81CBA9476316F900A2852685612437
:105460000DEDF24062444A85D2444249B249056199
:105470008280977700009387E7A46314F400804448
:1054800059B7977700009387E79FE31EF4F6C0446F
:105490009DBFA285268521203DDD7D59D9B74111CB
:1054A0009387418126C2844322C44AC006C62A8902
:1054B0002E8489C49C4C99E32685A9269777000001
:1054C0009387479E631CF402C0400317C4009317E0
:1054D0000701C18393F68700B5EE93F607019DEEB1
:1054E000A5472320F900136707042316E4007D5520
:1054F000B2402244924402494101828097770000E1
:105500009387479C6314F4008044C1B797770000E9
:1055100093874797E31BF4FAC04445BF918B8DC72F
:105520004C5889C9930744046384F5004A85352B98
:10553000232A04028357C4002322040093F7B7FDF3
:105540002316F4001C481CC08357C40093E787004F
:105550002316F4001C4881EF8357C4001307002072
:1055600093F707286385E700A2854A85852183573D
:10557000C40013F7170005C75C4823240400B307D1
:10558000F0401CCC1C480145A5F78317C40013F755
:10559000070839DF93E707042316F40089BF898BD6
:1055A000014791E3584818C4F1BF83D7C5000111E2
:1055B00022CC26CA06CE4AC84EC613F78700AA8454
:1055C0002E8471EFD841634DE000B841634AE0009A
:1055D0000145F2406244D2444249B24905618280A9
:1055E00058547DD703A904009396370123A00400E3
:1055F00063DD060670488357C400918B99C75C40F1
:105600001D8E5C5899C33C401D8E5C540C508146E5
:1056100026858297FD570357C400631DF50094400B
:10562000F54763E8D706B70740208507B3D7D7000B
:10563000858BA5C31C48232204001CC09317370187
:1056400063D80700FD576314F5009C4091E368C8D8
:105650004C5823A02401ADDD930744046384F50076
:1056600026852121232A0402A5B70C500146854630
:1056700026850297FD572A86E31FF5F69C40A5DF95
:1056800075476385E70059476394E70423A0240125
:1056900081B7136707042316E4007D551DBF83A956
:1056A0000501E38709F203A905008D8B23A03501CD
:1056B00033093941014791E3D84918C4E35A20F12D
:1056C0001C540C50CA864E86268582976349A000DA
:1056D0008357C40093E707042316F4007DBFAA99FB
:1056E0003309A940E1BF9C49B9CF011122CC06CEB4
:1056F0002A8411C51C4D81E72EC62922B245976721
:1057000000009387277A639BF5004C408397C50080
:1057100095C722856244F240056141BD976700004C
:105720009387477A6394F5000C44CDB797670000E0
:1057300093874775E39CF5FC4C44C9BFF240624433
:1057400001450561828001458280411122C406C65F
:105750002A842316B5002317C50023200500232221
:105760000500232405002322050623280500232AFB
:105770000500232C0500214681451305C505EFA032
:105780003FA897170000938747EC5CD0971700005D
:105790009387A7EE1CD4971700009387E7F25CD499
:1057A000971700009387A7F500D01CD8B240224479
:1057B0004101828097050000938525F3A9A241113C
:1057C00026C2130680069384F5FFB384C4024AC040
:1057D0002E8922C406C693854407252E2A8401CD2E
:1057E0002320050023222501310508C413868406E1
:1057F0008145EFA0FFA02285B24022449244024995
:10580000410182801C4DADE3411106C622C49707B9
:105810000000938767FA1CD5938781819C432324DA
:10582000050423260504232805046314F500854791
:105830001CCD2A841D2848C02285052808C422853D
:105840002D2048C44840014691450137084405468B
:10585000A545E53D48440946C945C53D85471CCC9D
:10586000B24022444101828082804111938781812C
:1058700026C284434AC006C69C4C22C42A8999E3A6
:1058800026854937938484048044DC40FD1763D621
:1058900007009C40B9CF8440C5BF0317C40039E757
:1058A000C177850723220406232004002322040055
:1058B000232404005CC423280400232A0400232C8E
:1058C0000400214681451305C405EFA07F93232AD8
:1058D0000402232C04022324040423260404228526
:1058E000B24022449244024941018280130484065A
:1058F00071BF91454A85E13588C051FDB1472320EC
:10590000F9000144E9BF797122D44AD052CC56CA79
:105910005AC85EC606D626D24ECE2A8AAE8A13044E
:1059200085040149054BFD5B09ECB25022544A85C0
:1059300092540259F249624AD24A424BB24B4561F3
:105940008280044483294400FD1963D40900004087
:10595000E1BF83D7C400637BFB008397E4006387C8
:105960007701A6855285829A3369A90093848406BB
:10597000E1BF1971A6DAAE848395E500A2DC86DE6C
:10598000328463DC050083D7C40023A0060093F7AC
:10599000070885E7930700401DA0300836C6EF00D2
:1059A000905CB246E34105FE7247BD67F98F797797
:1059B000BA9793B717009CC2F1BF930700041CC0AD
:1059C000F6506654D65401450961828083D7C500DC
:1059D000011122CC06CE26CA4AC8898B2E8489CFD3
:1059E000930774041CC01CC885475CC8F24062441D
:1059F000D24442490561828074003000AA84953FF8
:105A0000A2452A892685312201ED8317C40013F7A8
:105A1000072069FFF19B93E727002316F400C9B71D
:105A200097070000938747D99CD48357C40008C0C8
:105A300008C893E707082316F400A2475CC8B247DA
:105A400091CF8315E4002685EF00105501C98357D7
:105A5000C400F19B93E717002316F4008357C4009A
:105A60003369F9002316240151B7DDC183A7C5FFAF
:105A7000411122C406C626C21384C5FF63D30700A2
:105A80003E94AA84EF003069938701849C4381EFA0
:105A90002322040023A081842244B240268592441C
:105AA00041016F007067637EF40014403307D40037
:105AB0006396E7009843DC43369718C05CC0D9BFB3
:105AC000BA87D84319C3E37DE4FE94433386D700F5
:105AD000631F86001040B29694C33386D700E31D3F
